:100000000EC01DC01CC01BC057C01AC018C017C0EE
:1000100016C015C014C013C012C011C010C01124E6
:100020001FBECFE5D2E0DEBFCDBF20E0A0E6B0E04E
:1000300001C01D92A836B207E1F77CD0A4C0E0CF82
:100040001F920F920FB60F9211244F935F936F93ED
:100050007F938F939F9340916400509165006091CE
:1000600066007091670080916300909162009F5FCD
:10007000909362009F3108F48F5F9CE7980F9D3743
:1000800030F09FEF980F4F5F5F4F6F4F7F4F909310
:100090006300409364005093650060936600709322
:1000A00067009F918F917F916F915F914F910F901A
:1000B0000FBE0F901F9018951F920F920FB60F92C0
:1000C00011242F938F939F938FB58731E8F38091FD
:1000D0006000909161008A3D22E0920724F488B389
:1000E000856188BB09C08A3D22E0920729F08B5DBB
:1000F00092404397B0F4C398809160009091610062
:100100000196823023E0920784F4909361008093FB
:1001100060009F918F912F910F900FBE0F901F90B5
:100120001895C39A88B38A7EDCCF10926100109232
:100130006000EFCF83E08ABD83BF789489B7826087
:1001400089BF80E48CBD8FEF8DBD87EC80BF87E8D1
:1001500086B918BA8FE187BB87B5826087BD07B4BF
:1001600000FEFDCF87B5846087BD84EF80BF1CBCD7
:100170008FE08EBD84E98DBD84E089BF109261005F
:0A01800010926000FFCFF894FFCF4B
:00000001FF
